:040000000BEF00F012
:100008007182FACF01F0FBCF02F0F1ED15F030EF7D
:1000180017F0B20E0001BC6F000E0001BD6F12EFA9
:1000280006F0250E0001D219D8B40BD0AEC0D9FF06
:10003800AFC0DAFFD2C0DFFF0001AE4BAF2B12EF2B
:1000480006F0000E0001CB6F000ECA6F000E000113
:10005800C96F000EC86F05D00001C8850001B04BFC
:10006800B12BB0C0F6FFB1C0F7FF0800F550300A59
:10007800D8B4F2D7B0C0F6FFB1C0F7FF0800F5500A
:100088000AEC19F0D8A036D0000E0001CB6F000E94
:10009800CA6FCAC00FF0CBC010F0000E126E0A0E65
:1000A800116EB3EC18F00FC0CAF010C0CBF0D00E30
:1000B800636EFF0E646EB0C0F6FFB1C0F7FF0800B4
:1000C800F550656E666A6350652664506622655011
:1000D8000001CA2766500001CB230001B04BB12BA9
:1000E800B0C0F6FFB1C0F7FF0800F5500AEC19F0F0
:1000F800D8B0CFD7B0C0F6FFB1C0F7FF0800F550B1
:100108002E0AD8A434D00001C98D0001B04BB12B00
:10011800000E0001D16F000ED06F1ED0D0C00FF0BE
:10012800D1C010F0000E126E0A0E116EB3EC18F06A
:10013800B0C0F6FFB1C0F7FF0800F5500F26000E5B
:100148001022D00E0F240001D06FFF0E10200001E6
:10015800D16F0001B04BB12BB0C0F6FFB1C0F7FFB3
:100168000800F5500AEC19F0D8A00CD0D7D7000E2B
:100178000001D16F000ED06F0001C98903D00001C2
:10018800C9851AD0B0C0F6FFB1C0F7FF0001B04B67
:10019800B12B0800F5CFD2F00001D251000AD8B433
:1001A80021EF06F0640AD8B407D0020AD8B4E7D71A
:1001B8000F0AD8A412EF06F0070E0001C915D8B42B
:1001C800AED30001C9A905D0000E0001D16F060EFB
:1001D800D06FBCC0D9FFBDC0DAFFDECFCCF0DECF18
:1001E800CDF0DECFCEF0DECFCFF0040E0001BC277D
:1001F800000EBD230001CFAF15D0CCC00FF0CDC08D
:1002080010F0CEC011F0CFC012F085EC18F00FC07E
:10021800CCF010C0CDF011C0CEF012C0CFF0030E5C
:100228000001C813000E0001C76F000EC66F000161
:10023800CC510001CD110001CE110001CF11D8B46D
:1002480088D00001CE35CF35820F0001C66F00017E
:10025800C76BFF0EC7230001C607D8A0C707C6C0D3
:100268000FF0C7C010F0000E126E030E116EB3EC43
:1002780018F00FC0C6F010C0C7F0C6C015F0C7C050
:1002880016F0000E186E0A0E176E34EC16F015C034
:10029800C6F016C0C7F00001C7AF04D00001C607FA
:1002A800D8A0C7070001C6510008CFEC09F036C036
:1002B800BEF037C0BFF038C0C0F039C0C1F0BEC012
:1002C8001DF0BFC01EF0C0C01FF0C1C020F0CCC0E0
:1002D80021F0CDC022F0CEC023F0CFC024F0DBEC5B
:1002E8000BF01DC0BEF01EC0BFF01FC0C0F020C084
:1002F800C1F0BEC057F0BFC058F0C0C059F0C1C06F
:100308005AF0000E5B6E000E5C6E800E5D6E3F0E46
:100318005E6EF3EC14F0D8B005D00001C607D8A083
:10032800C70717D0BEC057F0BFC058F0C0C059F0BB
:10033800C1C05AF0000E5B6E000E5C6E200E5D6E42
:10034800410E5E6EF3EC14F0D8A003D00001C64B4A
:10035800C72B0001D1BF08D00001D15123E10D0EF8
:100368000001D05DD8B01ED0CCC043F0CDC044F061
:10037800CEC045F0CFC046F00001D051E1EC11F0FD
:1003880036C047F037C048F038C049F039C04AF0A5
:1003980083EC0DF043C0CCF044C0CDF045C0CEF0A6
:1003A80046C0CFF00001C7BF08D00001C7512AE1FD
:1003B8000A0E0001C65DD8B025D00001CC5100015D
:1003C800CD110001CE110001CF11D8B467D0CCC037
:1003D8003FF0CDC040F0CEC041F0CFC042F083EC3A
:1003E80015F03F50401041104210D8A457D00001DA
:1003F800C7BF54D00001C75105E1020E0001C65D18
:10040800D8A04CD0BEC057F0BFC058F0C0C059F0FB
:10041800C1C05AF05F0E5B6E700E5C6E890E5D6E29
:10042800400E5E6EF3EC14F0D8B003D00001F70E66
:1004380002D00001F80EC627FF0EC7230001C651DF
:10044800CFEC09F036C0BEF037C0BFF038C0C0F0FE
:1004580039C0C1F0CCC00FF0CDC010F0CEC011F043
:10046800CFC012F0BEC013F0BFC014F0C0C015F06A
:10047800C1C016F05FEC14F00FC0C2F010C0C3F09A
:1004880011C0C4F012C0C5F0000E0001CC6F000E00
:10049800CD6F000ECE6F000ECF6F3CD0CCC03FF0BA
:1004A800CDC040F0CEC041F0CFC042F083EC15F093
:1004B8003FC0C2F040C0C3F041C0C4F042C0C5F064
:1004C800CCC057F0CDC058F0CEC059F0CFC05AF0CC
:1004D800C2C015F0C3C016F0C4C017F0C5C018F0EC
:1004E800000E1EEC13F015C05BF016C05CF017C0D0
:1004F8005DF018C05EF0EEEC17F057C0CCF058C0B5
:10050800CDF059C0CEF05AC0CFF0000E0001C76F31
:10051800000EC66F010E0001D26F0A0E0001D2193B
:10052800D8B41ED00001D251040D5B0EF324F66E30
:10053800FF0EF420F76E0900F5500001C25D0900B6
:10054800F5500001C3590900F5500001C4590900CC
:10055800F5500001C559D8A003D00001D22BDDD732
:10056800D2C063F0646A63BE64060001D05163269A
:100578000001D15164220001C65163260001C75110
:10058800642263500001CA5F64500001CB5B000124
:10059800D0510001D111D8B404D00001CA07D8A0A5
:1005A800CB07030E0001C815636E000E0001C915C4
:1005B800646E63506410D8B404D00001CA07D8A090
:1005C800CB070001C8A53BD0030E0001C815636E18
:1005D800000E0001C915646E63506410D8B417D0BA
:1005E800AEC0D9FFAFC0DAFF2D0EDF6E0001AE4BF3
:1005F800AF2B0DD0AEC0D9FFAFC0DAFF300EDF6E23
:100608000001AE4BAF2B0001CA07D8A0CB070001F1
:10061800CBBF7FD00001CB51EDE10001CA05D8A0C6
:1006280078D0E8D7AEC0D9FFAFC0DAFF200EDF6EB2
:100638000001AE4BAF2B0001CA07D8A0CB070001C1
:10064800CBBF07D00001CB51EDE10001CA05D8B0FE
:10065800E9D7030E0001C815636E000E0001C91525
:10066800646E63506410D8B454D0AEC0D9FFAFC024
:10067800DAFF2D0E4CD00001AE4BAF2B4AD0C2C0D2
:100688000FF0C3C010F0C4C011F0C5C012F00001D3
:10069800D251040D5B0EF324F66EFF0EF420F76EB4
:1006A8000900F5CF13F00900F5CF14F00900F5CFD4
:1006B80015F00A00F5CF16F0B7EC16F00FC0BEF033
:1006C80010C0BFF011C0C0F012C0C1F0BEC01CF015
:1006D800BFC01DF0C0C01EF0C1C01FF00A0E206EC2
:1006E800000E216E000E226E000E236E65EC17F0D0
:1006F8001CC0BEF01DC0BFF01EC0C0F01FC0C1F0BE
:100708000001BE51300FAEC0D9FFAFC0DAFFDF6EB7
:10071800B2D70001D2070001D229D8B40ED0AFD782
:10072800AEC0D9FFAFC0DAFF300EDF6E0001AE4BAE
:10073800AF2B0001C607D8A0C7070001C7BF07D065
:100748000001C751EDE10001C605D8B0E9D70001A5
:10075800D1BF0CD00001D15105E1090E0001D05DD7
:10076800D8A004D0080E0001D26F02D0D0C0D2F0B9
:100778000001D2510001D05F000E0001D2BFFF0E70
:100788000001D15B0001D2510001D8B409D0AEC03C
:10079800D9FFAFC0DAFF2E0EDF6E0001AE4BAF2BD4
:1007A8000001D251CFEC09F036C0B8F037C0B9F02B
:1007B80038C0BAF039C0BBF0CCC021F0CDC022F0AF
:1007C800CEC023F0CFC024F0B8C01DF0B9C01EF0D1
:1007D800BAC01FF0BBC020F0DBEC0BF01DC03FF02F
:1007E8001EC040F01FC041F020C042F083EC15F05D
:1007F8003FC0C2F040C0C3F041C0C4F042C0C5F021
:1008080073D0C2C00FF0C3C010F0C4C011F0C5C08F
:1008180012F00001D251040D5B0EF324F66EFF0EA8
:10082800F420F76E0900F5CF13F00900F5CF14F0A6
:100838000900F5CF15F00A00F5CF16F0B7EC16F061
:100848000FC0BEF010C0BFF011C0C0F012C0C1F0A0
:10085800BEC01CF0BFC01DF0C0C01EF0C1C01FF05C
:100868000A0E206E000E216E000E226E000E236E00
:1008780065EC17F01CC0BEF01DC0BFF01EC0C0F074
:100888001FC0C1F00001BE51300FAEC0D9FFAFC0CC
:10089800DAFFDF6E0001AE4BAF2BC2C01CF0C3C045
:1008A8001DF0C4C01EF0C5C01FF00001D251040DD8
:1008B8005B0EF324F66EFF0EF420F76E0900F5CFF9
:1008C80020F00900F5CF21F00900F5CF22F00A0049
:1008D800F5CF23F065EC17F01CC0C2F01DC0C3F0C3
:1008E8001EC0C4F01FC0C5F00001D2070001D22904
:1008F800D8B40ED086D7AEC0D9FFAFC0DAFF300E5D
:10090800DF6E0001AE4BAF2B0001D007D8A0D10796
:100918000001D0510001D111D8B480D1ECD7BCC0AE
:10092800D9FFBDC0DAFFDECFC2F0DDCFC3F00001D2
:10093800000EC3BFFF0EC46FC56F020E0001BC27B7
:10094800000EBD230001C5AF0CD0030E0001C81373
:100958000001C51FC41FC31FC26D000EC323C423DB
:10096800C5230001D0510001D111D8A40DD0000138
:10097800C2510001C3110001C4110001C511D8A45E
:1009880003D00001D04BD12B010E0001D26F0A0E0B
:100998000001D219D8B41ED00001D251040D5B0E4B
:1009A800F324F66EFF0EF420F76E0900F5500001EF
:1009B800C25D0900F5500001C3590900F550000156
:1009C800C4590900F5500001C559D8A003D0000149
:1009D800D22BDDD7800E0001D2BF7F0E636E0001DF
:1009E800D0510001D25D0001D151800A6358D8B0BE
:1009F80003D0D0C0D2F016D00001D151800A636E66
:100A08000001D2510001D05D800E0001D2BF7F0EDF
:100A18006358D8B007D00001D2510001D06FD16B14
:100A2800D0BFD1070001CA510001CB11D8B410D0F2
:100A3800030E0001C815636E000E0001C915646E2F
:100A480063506410D8B404D00001CA07D8A0CB07FB
:100A58000001C9AD1CD00001CA510001D05D0001E0
:100A6800D151800A636E0001CB51800A6358D8B017
:100A780009D00001D0510001CA5F0001D151000125
:100A8800CB5B05D0000E0001CB6F000ECA6F800E45
:100A98000001D2BF7F0E636E0001CA510001D25D12
:100AA8000001CB51800A6358D8B00BD00001D25155
:100AB8000001CA5F000E0001D2BFFF0E0001CB5B30
:100AC80005D0000E0001CB6F000ECA6F0001C8A54B
:100AD80029D0030E0001C815636E000E0001C91568
:100AE800646E63506410D8B409D0AEC0D9FFAFC0EB
:100AF800DAFF2D0EDF6E0001AE4BAF2B0001CA519D
:100B08000001CB11D8B47FD0AEC0D9FFAFC0DAFF97
:100B1800300EDF6E0001AE4BAF2B0001CA07D8A024
:100B2800CB07ECD70001CA510001CB11D8B413D0C0
:100B3800AEC0D9FFAFC0DAFF200EDF6E0001AE4BAA
:100B4800AF2B0001CA07D8A0CB070001CA5100018A
:100B5800CB11D8A4EDD7030E0001C815636E000EA3
:100B68000001C915646E63506410D8B44CD0AEC08F
:100B7800D9FFAFC0DAFF2D0EDF6E42D0D0C063F0D0
:100B8800D1C064F0D89063366436D8906336643642
:100B98005B0E6324F66EFF0E6420F76E0900F5CF36
:100BA80013F00900F5CF14F00900F5CF15F00A008D
:100BB800F5CF16F0C2C00FF0C3C010F0C4C011F0DA
:100BC800C5C012F0B7EC16F00FC01CF010C01DF035
:100BD80011C01EF012C01FF00A0E206E000E216E0A
:100BE800000E226E000E236E65EC17F01C50300FBD
:100BF8000001D26FAEC0D9FFAFC0DAFFD2C0DFFFAD
:100C08000001AE4BAF2B0001D007D8A0D1070001DF
:100C1800D029B4E10001D129D8A4B0D7B0C0F6FFDB
:100C2800B1C0F7FF0001B04BB12B0800F5CFD2F0EF
:100C38000001D251D8A415EF00F0AEC0D9FFAFC063
:100C4800DAFF000EDF6E1200FBEC18F031EC19F041
:100C5800F082000EF26E000EF26ED09EF288F28ADA
:100C6800000EF16E000EF06EF086F18AF18C800EA7
:100C7800D56E000E9D6E000E9E6E000E9F6E000ECD
:100C8800A06E000EA06E000EA16E000EA26EF28E77
:100C9800F28C98EC17F0010E176E000E4FEC18F05E
:100CA8008282000E0101936F000E926F0400000E05
:100CB80076EC16F03CC0A4F03DC0A5F03EC0A6F00E
:100CC8003FC0A7F0A4C01DF0A5C01EF0A6C01FF02D
:100CD800A7C020F0000E216E000E226E200E236E9B
:100CE800420E246EDBEC0BF01DC082F11EC083F1B6
:100CF8001FC084F120C085F1020E76EC16F03CC0CE
:100D0800A8F03DC0A9F03EC0AAF03FC0ABF0A8C013
:100D18001DF0A9C01EF0AAC01FF0ABC020F0000E45
:100D2800216E000E226E480E236E430E246EDBECFD
:100D38000BF01DC086F11EC087F11FC088F120C0CE
:100D480089F182C157F083C158F084C159F085C137
:100D58005AF086C15BF087C15CF088C15DF089C13B
:100D68005EF0F3EC14F0D8A002D0828A26D086C1B7
:100D780057F087C158F088C159F089C15AF0A0C00E
:100D880047F0A1C048F0A2C049F0A3C04AF082C110
:100D980043F083C144F084C145F085C146F083EC3B
:100DA8000DF043C05BF044C05CF045C05DF046C048
:100DB8005EF0F3EC14F0D8B0829A010192050101BB
:100DC8009311D8A46ED0010191BF07D001019151B0
:100DD80018E101019005D8B014D001018DBF07D0EA
:100DE80001018D510EE101018C05D8B00AD0010135
:100DF8008BBF40D001018B5104E101018A05D8A0C5
:100E080039D00101905101019111D8A41AD00101E2
:100E18008C5101018D11D8A414D0FF0E01018A252F
:100E280001018A6FFF0E01018B2101018B6F000EFA
:100E380001018D6F3B0E8C6F000E0101916F3B0E0F
:100E4800906F0101905101019111D8A40FD0FF0EAC
:100E580001018C2501018C6FFF0E01018D2101011B
:100E68008D6F000E0101916F3B0E906F010190078D
:100E7800D8A091070101905101019111D8A411D076
:100E880001018C5101018D11D8A40BD001018A51A7
:100E980001018B11D8A405D0000E0001D86F010EF6
:100EA800D76F0001D7510001D811D8B421D0000E56
:100EB8000001D66F000ED56F0001D6BF08D0000123
:100EC800D65111E1040E0001D55DD8B00CD0829244
:100ED800000E106E640E0F6ED8EC18F082820001BE
:100EE800D54BD62BE9D7000E0001D86F000ED76F6F
:100EF80081B6E3D0010E106EF40E0F6ED8EC18F028
:100F080001018E5101018F11D8A424D0010191BF94
:100F180008D00101915109E13B0E0101905DD8B063
:100F280004D00101904B912BC8D0000E0101916FA4
:100F3800000E906F01018C4B8D2B3C0E01018C191A
:100F480001018D11D8A4B9D0000E01018D6F000EDA
:100F58008C6FB0D001018E0501018F11D8A433D058
:100F6800010191BF08D00101915110E1320E010138
:100F7800905DD8B00BD00A0E010190250101906F49
:100F8800000E010191210101916F97D0CE0E010150
:100F980090250101906FFF0E010191210101916FD0
:100FA80001018C4B8D2B3C0E01018C1901018D1117
:100FB800D8A483D001018A4B8B2B000E01018D6FC1
:100FC800000E8C6F7AD0020E01018E1901018F116B
:100FD800D8A42DD001018DBF08D001018D5109E1A0
:100FE8003B0E01018C5DD8B004D001018C4B8D2BD8
:100FF80064D0000E01018D6F000E8C6F01018A4BC9
:101008008B2B190E01018A1901018B11D8A455D017
:1010180001018A07D8A08B07000E01018D6F000E11
:101028008C6F000E0101916F000E906F46D0030E79
:1010380001018E1901018F11D8A42ED001018DBF95
:1010480008D001018D5110E1320E01018C5DD8B03C
:101058000BD00A0E01018C2501018C6F000E0101D5
:101068008D2101018D6F29D00A0E01018C25010106
:101078008C6F000E01018D2101018D6F01018A4BDA
:101088008B2BC40E01018C2501018C6FFF0E010111
:101098008D2101018D6FB5D7040E01018E19010153
:1010A8008F11D8A40AD0180E01018A1901018B11D9
:1010B800D8B403D001018A4B8B2B81B84DD1010ED6
:1010C800106EF40E0F6ED8EC18F001018E5101016C
:1010D8008F11D8A44FD00101905101019111D8A4CA
:1010E80032D001018DBF0BD001018D5104E1010106
:1010F8008C05D8A004D001018C07D8A08D07000E5C
:101108000101916F3B0E906F01018C5101018D110E
:10111800D8A422D101018BBF1FD101018B5104E159
:1011280001018A05D8A018D101018A07D8A08B0728
:10113800000E01018D6F3B0E8C6F000E0101916F47
:101148003B0E906F09D10101905101019111D8A472
:101158000CD001018C5101018D11D8A406D00101D8
:101168008A5101018B11D8B4F7D001019007D8A09A
:101178009107F2D001018E0501018F11D8A45FD02B
:10118800010191BF08D0010191511FE10A0E01012F
:10119800905DD8B01AD0010191BF08D001019151DA
:1011A8001FE10A0E0101905DD8B01AD001018DBF70
:1011B80017D001018D5104E101018C05D8A010D090
:1011C80001018C07D8A08D072FD0F60E01019025BC
:1011D8000101906FFF0E010191210101916FBCD0B7
:1011E800010191BF08D00101915104E10A0E0101EA
:1011F800905DD8B0B1D001018C5101018D11D8A4F6
:10120800ABD001018BBFA8D001018B5104E10101D2
:101218008A05D8A0A1D001018A07D8A08B07000EA3
:1012280001018D6F3B0E8C6F3C0E01019025010171
:10123800906F000E010191210101916FC6D7020E36
:1012480001018E1901018F11D8A431D001018C51EF
:1012580001018D11D8A414D001018BBF7DD00101EB
:101268008B5104E101018A05D8A076D001018A07D3
:10127800D8A08B07000E01018D6F3B0E8C6F6CD0D0
:101288000101905101019111D8A40CD001018C5198
:1012980001018D11D8A406D001018A5101018B11D9
:1012A800D8B45AD001018C07D8A08D0755D0030EA9
:1012B80001018E1901018F11D8A439D001018DBF08
:1012C80008D001018D5128E10B0E01018C5DD8B0C9
:1012D80023D001018DBF08D001018D513DE10A0ED7
:1012E80001018C5DD8B038D001018BBF35D0010128
:1012F8008B5104E101018A05D8A02ED001018A078B
:10130800D8A08B073C0E01018C2501018C6F000EC3
:1013180001018D2101018D6FF60E01018C2501015E
:101328008C6FFF0E01018D2101018D6F15D0040E08
:1013380001018E1901018F11D8A40ED001018BBFB4
:101348000BD001018B5104E101018A05D8A004D01A
:1013580001018A07D8A08B0781BA15D0000E0101B8
:10136800916F000E906F000E01018D6F000E8C6F53
:10137800000E01018B6F000E8A6F000E0101936F42
:10138800000E926F829A000E0001AD6F000EAC6FD6
:1013980021EC0FF08BD43E6E3EAE05D13E6C3E5034
:1013A800800A120FD8A098D0000E186E0A0E176E79
:1013B800000E126E640E116E3E500F6E106A0FBE54
:1013C8001006F8EC16F00FC015F010C016F034EC4B
:1013D80016F0D89015361636D89015361636240ECF
:1013E8001526000E1622F30E1524F66EFE0E162094
:1013F800F76E0900F5CF21F00900F5CF22F00900BA
:10140800F5CF23F00A00F5CF24F0000E186E640E15
:10141800176E3E50156E166A15BE160634EC16F099
:10142800D89015361636D89015361636480E152625
:10143800000E1622F30E1524F66EFE0E1620F76E19
:101448000900F5CF1DF00900F5CF1EF00900F5CF12
:101458001FF00A00F5CF20F0DBEC0BF01DC03AF0CE
:101468001EC03BF01FC03CF020C03DF03AC01DF04C
:101478003BC01EF03CC01FF03DC020F0000E126EB5
:101488000A0E116E3E500F6E106A0FBE1006F8EC71
:1014980016F0D8900F361036D8900F361036F30E57
:1014A8000F24F66EFE0E1020F76E0900F5CF21F01E
:1014B8000900F5CF22F00900F5CF23F00A00F5CF97
:1014C80024F0DBEC0BF01DC036F01EC037F01FC057
:1014D80038F020C039F012003E50800A750FD8A0AD
:1014E8004DD0000E186E0A0E176E3E50156E166A15
:1014F80015BE160634EC16F0D89015361636D89068
:1015080015361636240E1526000E1622F30E15244F
:10151800F66EFE0E1620F76E0900F5CF1DF00900D5
:10152800F5CF1EF00900F5CF1FF00A00F5CF20F027
:10153800000E126E0A0E116E3E500F6E106A0FBE2C
:101548001006F8EC16F0D8900F361036D8900F36F3
:101558001036F30E0F24F66EFE0E1020F76E0900FB
:10156800F5CF21F00900F5CF22F00900F5CF23F0DF
:101578000A00F5CF24F0DBEC0BF0A5D73E50040DA4
:10158800F30EF324F66EFE0EF420F76E0900F5CF85
:1015980036F00900F5CF37F00900F5CF38F00A002A
:1015A800F5CF39F012003E50800A120FD8A098D01B
:1015B800000E186E0A0E176E000E126E640E116E73
:1015C8003E500F6E106A0FBE1006F8EC16F00FC0F2
:1015D80015F010C016F034EC16F0D8901536163603
:1015E800D89015361636240E1526000E1622270E0C
:1015F8001524F66EFF0E1620F76E0900F5CF21F0C0
:101608000900F5CF22F00900F5CF23F00A00F5CF45
:1016180024F0000E186E640E176E3E50156E166A92
:1016280015BE160634EC16F0D89015361636D89036
:1016380015361636480E1526000E1622270E1524C6
:10164800F66EFF0E1620F76E0900F5CF1DF00900A3
:10165800F5CF1EF00900F5CF1FF00A00F5CF20F0F6
:10166800DBEC0BF01DC03AF01EC03BF01FC03CF095
:1016780020C03DF03AC01DF03BC01EF03CC01FF03A
:101688003DC020F0000E126E0A0E116E3E500F6E15
:10169800106A0FBE1006F8EC16F0D8900F36103608
:1016A800D8900F361036270E0F24F66EFF0E102036
:1016B800F76E0900F5CF21F00900F5CF22F00900F7
:1016C800F5CF23F00A00F5CF24F0DBEC0BF01DC0BA
:1016D80036F01EC037F01FC038F020C039F01200B5
:1016E8003E50800A750FD8A04DD0000E186E0A0E15
:1016F800176E3E50156E166A15BE160634EC16F0B7
:10170800D89015361636D89015361636240E152666
:10171800000E1622270E1524F66EFF0E1620F76E01
:101728000900F5CF1DF00900F5CF1EF00900F5CF2F
:101738001FF00A00F5CF20F0000E126E0A0E116E8F
:101748003E500F6E106A0FBE1006F8EC16F0D890D7
:101758000F361036D8900F361036270E0F24F66E37
:10176800FF0E1020F76E0900F5CF21F00900F5CF24
:1017780022F00900F5CF23F00A00F5CF24F0DBECC6
:101788000BF0A5D73E50040D270EF324F66EFF0E7E
:10179800F420F76E0900F5CF36F00900F5CF37F0E1
:1017A8000900F5CF38F00A00F5CF39F012002050C3
:1017B800800B296E205020242F6E1FBE2F802F50A3
:1017C800D8B40DD02F28D8A408D0000E1D6E000E56
:1017D8001E6E000E1F6E000E206E1F8E08D0000EAB
:1017E8001D6E000E1E6E000E1F6E000E206E245021
:1017F800800B291A245024242E6E23BE2E802E50AE
:10180800D8B40DD02E28D8A408D0000E216E000E12
:10181800226E000E236E000E246E238E08D0000E5A
:10182800216E000E226E000E236E000E246E2E50C6
:10183800D8B403D02F50D8A409D0000E1D6E000EC6
:101848001E6E000E1F6E000E206E120023501D0229
:10185800F3CF34F0F4CF35F034502A6E2B6A2C6A6B
:101868002D6A3550306E316A326A336A22501E0250
:10187800F3CF34F0F4CF35F034502A26000E2B2263
:101888002C222D2235503026000E312232223322CE
:1018980021501F02F3CF34F0F4CF35F034502A260C
:1018A800000E2B222C222D2235503026000E3122FC
:1018B800322233222CC02DF02BC02CF02AC02BF062
:1018C8002A6A21501E02F3CF34F0F4CF35F0345099
:1018D8002A2635502B22000E2C22000E2D222250B3
:1018E8001D02F3CF34F0F4CF35F034502A263550AA
:1018F8002B22000E2C22000E2D222CC02DF02BC0E6
:101908002CF02AC02BF02A6A21501D02F3CF34F0A4
:10191800F4CF35F034502A2635502B22000E2C22D5
:10192800000E2D2223501E02F3CF34F0F4CF35F0F1
:101938003450302635503122000E3222000E332228
:1019480022501F02F3CF34F0F4CF35F03450302654
:1019580035503122000E3222000E332223501F024E
:10196800F3CF34F0F4CF35F03450256E3550266E71
:10197800276A286A27C028F026C027F025C026F045
:10198800256A2550302626503122275032222850E9
:1019980033222AC025F02BC026F02CC027F02DC0FA
:1019A80028F0190E05D0D890283227322632253251
:1019B800E82EF9D7255030262650312227503222DA
:1019C800285033222CC02DF02BC02CF02AC02BF02D
:1019D8002A6A2E502FC025F0266A2526000E2622B8
:1019E800820E2524346EFF0E2620356E0FD0D89037
:1019F80030363136323633362DBE3080D8902A36DE
:101A08002B362C362D363406D8A0350632AEEFD715
:101A1800000E2E6E2DAE16D0FF0E2A14256EFF0E68
:101A28002B14266EFF0E2C14276E7F0E2D14286E95
:101A38002550261027102810D8A402D030A002D094
:101A4800010E2E6E2E50D8B41FD0010E3026000E77
:101A580031223222332233A017D030C025F031C0D2
:101A680026F032C027F033C028F028342832273235
:101A78002632253225C030F026C031F027C032F09A
:101A880028C033F0344A352A35BE0DD0355003E12D
:101A98003428D8A008D0000E306E000E316E800EAB
:101AA800326E7F0E20D035BE05D035500EE134049D
:101AB800D8B00BD0000E306E000E316E000E326EB4
:101AC800000E336E000E296E0FD034C02FF0FF0EBB
:101AD8003016FF0E31167F0E3216000E33162FB059
:101AE800328ED8902F30336E2950331230C01DF00B
:101AF80031C01EF032C01FF033C020F01200465033
:101B0800800B536E46504624556E45BE5580555041
:101B1800D8B40DD05528D8A408D0000E436E000EB6
:101B2800446E000E456E000E466E458E06D0000EC1
:101B3800436E000E446E000E456E000E466E4A500F
:101B4800800B546E53505418D8A4538C4A504A24CE
:101B5800546E49BE54805450D8B40DD05428D8A4DB
:101B680008D0000E476E000E486E000E496E000E3B
:101B78004A6E498E06D0000E476E000E486E000E63
:101B8800496E000E4A6E5550545CD8B022D053AC02
:101B980002D0800E531A55C056F054C055F056C0A6
:101BA80054F043C056F047C043F056C047F044C015
:101BB80056F048C044F056C048F045C056F049C0F9
:101BC80045F056C049F046C056F04AC046F056C0E7
:101BD8004AF0000E566E55504B6E4C6A4B1E4C1E0A
:101BE8004B4A4C2A54504D6E4E6A4B504D264C5021
:101BF8004E224EBE2CD04E5004E11A0E4D5CD8A099
:101C080026D04350441045104610D8B402D0010ED7
:101C180001D0000E566E000E436E000E446E000E8C
:101C2800456E000E466E54C055F015D056A005D02E
:101C3800D89056300109566E02D0D890563243B02B
:101C4800568E46344632453244324332552A545031
:101C5800555CD8A0EBD753BC29D05550D8A409D08F
:101C6800000E436E000E446E000E456E000E466E6A
:101C780012004750432648504422495045224A50B2
:101C8800462246A083D056A006D0D8905632565049
:101C98000109566E02D0D890563243B0568E46345B
:101CA8004632453244324332552A70D04750435C5D
:101CB80048504458495045584650800A4B6E4A503F
:101CC800800A4B58D8B036D043C04BF044C04CF0D3
:101CD80045C04DF046C04EF04B1E4C1E4D1E4E1ECC
:101CE8004B2A000E4C224D224E2247504B244F6E59
:101CF80048504C20506E49504D20516E4A504E204D
:101D0800526EFF0E4F24436EFF0E5020446EFF0E9E
:101D18005120456EFF0E5220466E800E531A566CA7
:101D28005650D8A40FD0010E4326000E4422452257
:101D3800462208D04750435E4850445A4950455AB5
:101D48004A50465A4350441045104610D8A41CD057
:101D58005650D8A419D0000E436E000E446E000EE3
:101D6800456E000E466E1200D8904336443645360E
:101D7800463656BE438056A002D0D88001D0D890AF
:101D880056365550D8A4550645AEEED7000E546EBB
:101D980056AE0AD056C04BF07F0E4B16D8A402D0D0
:101DA80043A002D0010E546E5450D8B420D0010E76
:101DB8004326000E44224522462246A018D043C09E
:101DC8004BF044C04CF045C04DF046C04EF04E3488
:101DD8004E324D324C324B324BC043F04CC044F083
:101DE8004DC045F04EC046F05528D8A4552A552870
:101DF800D8B403D05550D8A40DD0000E436E000EB1
:101E0800446E000E456E000E466E5550D8A402D0A2
:101E1800000E536E55A002D0458E01D0459ED89035
:101E28005530466E53BE468E43C043F044C044F01E
:101E380045C045F046C046F0120082AA02D04F0EB7
:101E480001D0460E0101816F010192050101931134
:101E5800D8A420D0010191BF07D00101915118E108
:101E680001019005D8B014D001018DBF07D0010140
:101E78008D510EE101018C05D8B00AD001018BBF4C
:101E880009D001018B5104E101018A05D8A002D0D3
:101E98004F0E01D0460E0101806F4BD0000E00019D
:101EA800AE6F010E0001AF6FA90E0001B06FFF0EFB
:101EB8000001B16F0DEC00F056D0000E0001AE6FBE
:101EC800010E0001AF6F980E0001B06FFF0E000108
:101ED800B16F0DEC00F047D0000E0001AE6F010E9F
:101EE8000001AF6FB80E0001B06FFF0E0001B16FB7
:101EF8000DEC00F038D0000E0001AE6F010E0001AD
:101F0800AF6FC60E0001B06FFF0E0001B16F0DEC90
:101F180000F029D0000E0001AE6F010E0001AF6F76
:101F2800D30E0001B06FFF0E0001B16F0DEC00F091
:101F38001AD08EC1D3F08FC1D4F00001D451000A59
:101F4800D8A411D00001D351000AD8B4A7D7010AE8
:101F5800D8B4B3D7030AD8B4BFD7010AD8B4CBD7FB
:101F6800070AD8B4D7D7010E196E010E11EC18F074
:101F7800400E0001AE6F010E0001AF6F830E00012D
:101F8800B06FFF0E0001B16F8AC1B2F08BC1B3F020
:101F98008CC1B4F08DC1B5F090C1B6F091C1B7F065
:101FA8000DEC00F0400E1D6E010E1E6EC6EC18F012
:101FB800020E196E010E11EC18F0400E0001AE6F02
:101FC800010E0001AF6FE80E0001B06FFF0E0001B7
:101FD800B16F86C1B2F087C1B3F088C1B4F089C1CE
:101FE800B5F00DEC00F0400E1D6E010E1E6EC6EC35
:101FF80018F0020E196E0C0E11EC18F0400E0001CC
:10200800AE6F010E0001AF6FF70E0001B06FFF0E4B
:102018000001B16F0DEC00F0400E1D6E010E1E6E3A
:10202800C6EC18F0030E196E0C0E11EC18F0400EE9
:102038000001AE6F010E0001AF6FFB0E0001B06F23
:10204800FF0E0001B16F0DEC00F0400E1D6E010E89
:102058001E6EC6EC18F0030E196E010E11EC18F086
:10206800400E0001AE6F010E0001AF6FDE0E0001E1
:10207800B06FFF0E0001B16F82C1B2F083C1B3F03F
:1020880084C1B4F085C1B5F00DEC00F0400E1D6EB2
:10209800010E1E6EC6EC18F0030E196E0F0E11EC31
:1020A80018F001018151C3EC17F0020E196E0F0EE2
:1020B80011EC18F001018051C3EC17F0040E196EF1
:1020C800010E11EC18F0400E0001AE6F010E000178
:1020D800AF6FF20E0001B06FFF0E0001B16F0DEC93
:1020E80000F0400E1D6E010E1E6EC6EC18F0040EB8
:1020F800196E050E11EC18F0000E1D6E010E1E6E05
:10210800C6EC18F012002650800B2F6E265026249D
:102118003A6E25BE3A803A50D8B40DD03A28D8A4A1
:1021280008D0000E236E000E246E000E256E000EE1
:10213800266E258E06D0000E236E000E246E000E2D
:10214800256E000E266E2A50800B2F1A2A502A243C
:102158003B6E29BE3B803B50D8B40DD03B28D8A459
:1021680008D0000E276E000E286E000E296E000E95
:102178002A6E298E06D0000E276E000E286E000EDD
:10218800296E000E2A6E2750281029102A10D8A46C
:1021980015D0000E236E000E246E000E256E000E64
:1021A800266E800E25127F0E261223C023F024C02F
:1021B80024F025C025F026C026F012003A50D8A4F5
:1021C80011D0000E236E000E246E000E256E000E38
:1021D800266E23C023F024C024F025C025F026C095
:1021E80026F012003B502B6E2C6A2B1E2C1E2B4AFD
:1021F8002C2A3A502D6E2E6A2B502D262C502E222A
:102208007F0E2D24346E000E2E20356E23C030F044
:1022180024C031F025C032F026C033F0000E236E02
:10222800000E246E000E256E000E266E000E366E11
:10223800000E376E000E386E000E396E000E3B6EC3
:1022480028D03B50D8B411D0D890303631363236F9
:102258003336D890233624362536263639BE2380A1
:10226800D89036363736383639362750305C2850CD
:102278003158295032582A503358D8A009D0398CAF
:102288002750305E2850315A2950325A2A50335A32
:102298003B2A190E3B64D5D7305031103210331019
:1022A800D8B411D036800FD0D890233624362536AE
:1022B800263639BE2380D890363637363836393602
:1022C8003406D8A0350625AEEFD7000E3B6E39AEE2
:1022D80016D0FF0E36142B6EFF0E37142C6EFF0E21
:1022E80038142D6E7F0E39142E6E2B502C102D1095
:1022F8002E10D8A402D023A002D0010E3B6E3B5072
:10230800D8B41FD0010E2326000E2422252226220F
:1023180026A017D023C02BF024C02CF025C02DF008
:1023280026C02EF02E342E322D322C322B322BC0DA
:1023380023F02CC024F02DC025F02EC026F0344AFE
:10234800352A35BE10D0355003E13428D8A00BD03B
:10235800000E356E3468000E236E000E246E000EDB
:10236800256E000E266E35BE05D0355011E13404B9
:10237800D8B00ED0000E356E000E346E000E236EEF
:10238800000E246E000E256E000E266E000E2F6EB7
:1023980034C03AF03AA002D0258E01D0259ED890BC
:1023A8003A30266E2F50261223C023F024C024F082
:1023B80025C025F026C026F01200426E6D0E42643C
:1023C800ACD0000E186E0A0E176E000E126E640E58
:1023D800116E42C00FF0106AF8EC16F00FC015F03D
:1023E80010C016F034EC16F0D89015361636D89082
:1023F80015361636240E1526000E1622F30E152451
:10240800F66EFE0E1620F76E0900F5CF21F00900D2
:10241800F5CF22F00900F5CF23F00A00F5CF24F01C
:10242800000E186E640E176E42C015F0166A34EC72
:1024380016F0D89015361636D89015361636480E3A
:102448001526000E1622F30E1524F66EFE0E162023
:10245800F76E0900F5CF1DF00900F5CF1EF0090051
:10246800F5CF1FF00A00F5CF20F0DBEC0BF01DC014
:102478003EF01EC03FF01FC040F020C041F0000EEB
:10248800126E0A0E116E42C00FF0106AF8EC16F0C8
:10249800D8900F361036D8900F361036F30E0F241A
:1024A800F66EFE0E1020F76E0900F5CF21F0090038
:1024B800F5CF22F00900F5CF23F00A00F5CF24F07C
:1024C8003EC01DF03FC01EF040C01FF041C020F0CC
:1024D800DBEC0BF01DC03AF01EC03BF01FC03CF017
:1024E80020C03DF03AC01DF03BC01EF03CC01FF0BC
:1024F8003DC020F0000E216E000E226E000E236EED
:102508003F0E246EDBEC0BF01DC036F01EC037F01A
:102518001FC038F020C039F012000A0E426463D0A0
:10252800000E126E0A0E116E42C00FF0106AF8EC1F
:1025380016F0D8900F361036D8900F361036F30EA6
:102548000F24F66EFE0E1020F76E0900F5CF21F06D
:102558000900F5CF22F00900F5CF23F00A00F5CFE6
:1025680024F0000E186E0A0E176E42C015F0166A97
:1025780034EC16F0D89015361636D890153616362F
:10258800240E1526000E1622F30E1524F66EFE0EE6
:102598001620F76E0900F5CF1DF00900F5CF1EF0E3
:1025A8000900F5CF1FF00A00F5CF20F0DBEC0BF0A7
:1025B8001DC03EF01EC03FF01FC040F020C041F0DB
:1025C8003EC01DF03FC01EF040C01FF041C020F0CB
:1025D800000E216E000E226E000E236E3F0E246E3A
:1025E800DBEC0BF091D74250040DF30EF324F66E9A
:1025F800FE0EF420F76E0900F5CF1DF00900F5CFA7
:102608001EF00900F5CF1FF00A00F5CF20F0000EEC
:10261800216E000E226E000E236E3F0E246EDBEC40
:102628000BF01DC036F01EC037F01FC038F020C0B8
:1026380039F012001D6E1D50D8A418AE1AD015C05E
:1026480019F016C01AF017C01BF018C01CF0191E9C
:102658001A1E1B1E1C1E192A000E1A221B221C22BF
:1026680019C01FF01AC020F01BC021F01CC022F0B6
:1026780008D015C01FF016C020F017C021F018C0F0
:1026880022F01550161017101810D8A409D0000EF3
:10269800156E000E166E000E176E000E186E1200E4
:1026A800960E1E6E06D01E2AD89022322132203273
:1026B8001F32000E1F14196E000E20141A6E000E21
:1026C80021141B6EFE0E22141C6E19501A101B10BA
:1026D8001C10D8B40DD0E7D71E2A010E1F26000EF5
:1026E800202221222222D8902232213220321F3267
:1026F800000E1F14196E000E20141A6E000E2114FD
:102708001B6EFF0E22141C6E19501A101B101C1081
:10271800D8B407D0E1D71E06D8901F362036213608
:10272800223621BE03D0020E1E60F5D71EB008D097
:10273800FF0E1F16FF0E20167F0E2116FF0E221603
:10274800D8901E321EC019F01A6A1B6A1C6A19C07A
:102758001CF01B6A1A6A196A19501F121A502012A3
:102768001B5021121C5022121D50D8A418AE01D0A3
:10277800228E1FC015F020C016F021C017F022C00D
:1027880018F0120011C017F0186A196A10341736B9
:1027980001E3188017501F6E1F50D8A409D0000EEF
:1027A8000F6E000E106E000E116E000E126E1200EB
:1027B80015C017F0186A196A1434173601E318801F
:1027C80017501E6E1E50D8A409D0000E0F6E000EB2
:1027D800106E000E116E000E126E1200108EFF0E9B
:1027E8000F16FF0E1016000E1116148EFF0E13167C
:1027F800FF0E1416000E1516000E1A6E000E1B6E34
:10280800000E1C6E000E1D6E7F0E1F5E1E50980F70
:102818001F5E180E1E6ED8901A361B361C361D36D3
:1028280013500F5C1450105815501158D8A007D0E9
:1028380013500F5E1450105A1550115A1A80D89020
:102848000F36103611361E2EE6D71FAE16D01F5083
:10285800800A970FD8B009D0000E0F6E000E106EC8
:10286800000E116E000E126E1200D8901D321C322E
:102878001B321A321F3EF9D715D0170E1F640FD01E
:10288800000E0F6E000E106E000E116E000E126E0E
:102898001200D8901A361B361C361D361F061F50DC
:1028A800D8A4F7D71AC00FF01BC010F01CC011F045
:1028B8001DC012F01200113412341C6E1C50D8A422
:1028C80009D0000E0F6E000E106E000E116E000E75
:1028D800126E1200153416341B6E1B50D8A409D082
:1028E800000E0F6E000E106E000E116E000E126EAE
:1028F8001200118EFF0E0F16FF0E1016FF0E111686
:10290800000E1216158EFF0E1316FF0E1416FF0E6C
:102918001516000E1616000E176E000E186E000E15
:10292800196E000E1A6E7F0E1C5E1B50A00F1C5EE7
:10293800200E1B6ED8901736183619361A361350D3
:102948000F5C145010581550115816501258D8A032
:1029580009D013500F5E1450105A1550115A1650C2
:10296800125A1780D8900F361036113612361B2E91
:10297800E1D71CAE16D01C50800A9F0FD8B009D0E2
:10298800000E0F6E000E106E000E116E000E126E0D
:102998001200D8901A321932183217321C3EF9D761
:1029A80015D01F0E1C640FD0000E0F6E000E106E97
:1029B800000E116E000E126E1200D89017361836DF
:1029C80019361A361C061C50D8A4F7D717C00FF0B2
:1029D80018C010F019C011F01AC012F01200000E41
:1029E80057145F6E000E5814606E800E5914616E95
:1029F8007F0E5A14626E5F50601061106210D8A486
:102A080008D0000E576E000E586E000E596E000E5C
:102A18005A6E000E5B145F6E000E5C14606E800EC2
:102A28005D14616E7F0E5E14626E5F5060106110FF
:102A38006210D8A408D0000E5B6E000E5C6E000E0B
:102A48005D6E000E5E6E5AAE1DD057C05FF058C066
:102A580060F059C061F05AC062F05F1E601E611ECE
:102A6800621E5F2A000E602261226222000E5F242D
:102A7800576E000E6020586E000E6120596E800E51
:102A880062205A6E5EAE1DD05BC05FF05CC060F025
:102A98005DC061F05EC062F05F1E601E611E621E56
:102AA8005F2A000E602261226222000E5F245B6EA4
:102AB800000E60205C6E000E61205D6E800E62204C
:102AC8005E6E000E571A000E581A000E591A800E24
:102AD8005A1A000E5B1A000E5C1A000E5D1A800E60
:102AE8005E1A5B50575C5C5058585D5059585E50A0
:102AF8005A58D8B002D0D8901200D8801200413469
:102B08004234486E4850D8A409D0000E3F6E000EDB
:102B1800406E000E416E000E426E12003FC043F040
:102B280040C044F041C045F042C046F0200E05D0F8
:102B3800D8904632453244324332E82EF9D74350D2
:102B4800476E418EFF0E3F16FF0E4016FF0E4116D0
:102B5800000E4216960E485E48AE16D04850800ABF
:102B6800970FD8B009D0000E3F6E000E406E000ED1
:102B7800416E000E426E1200D8904232413240320D
:102B88003F32483EF9D715D01F0E48640FD0000ECB
:102B98003F6E000E406E000E416E000E426E120037
:102BA800D8903F3640364136423648064850D8A479
:102BB800F7D74750D8B408D0421E411E401E3F6C7C
:102BC800000E4022412242223FC03FF040C040F068
:102BD80041C041F042C042F012000600E9CF03F0C4
:102BE800EACF04F0E1CF05F0E2CF06F0D9CF07F045
:102BF800DACF08F0F3CF09F0F4CF0AF0F6CF0BF0F4
:102C0800F7CF0CF0F8CF0DF0F5CF0EF0F2B419ECC9
:102C180019F0F0B222EC19F0F0B02AEC19F0F2B287
:102C28006CEC18F00EC0F5FF0DC0F8FF0CC0F7FFF4
:102C38000BC0F6FF0AC0F4FF09C0F3FF08C0DAFFB3
:102C480007C0D9FF06C0E2FF05C0E1FF04C0EAFFE4
:102C580003C0E9FF02C0FBFF01C0FAFF7192110037
:102C6800000E1A6E18AE06D0176C181ED8B0182AA7
:102C7800010E1A6E16AE06D0156C161ED8B0162A9E
:102C8800010E1A1A000E1C6E000E1B6E175018103B
:102C9800D8B41CD0010E196E04D0D8901736183647
:102CA800192A18AEFAD7D8901B361C361750155C5F
:102CB80018501658D8A005D01750155E1850165A37
:102CC8001B80D89018321732192EEDD71A50D8B465
:102CD80004D01B6C1C1ED8B01C2A1BC015F01CC0CD
:102CE80016F01200466E465032EC18F00FC044F051
:102CF80010C045F044C00FF045C010F0000E126E31
:102D0800050E116EB3EC18F00FC015F010C016F0D8
:102D1800000E16BEFF0E176E186E010E1EEC13F095
:102D280015C023F016C024F017C025F018C026F0EF
:102D3800000E276EC00E286E7F0E296E440E2A6E76
:102D480087EC10F023C040F024C041F025C042F0C9
:102D580026C043F040C03CF041C03DF042C03EF0C8
:102D680043C03FF01200000E176E000E186E000EE2
:102D7800196E000E1A6E1350141015101610D8B4D0
:102D88002AD0010E1B6E06D0D8901336143615368D
:102D980016361B2A16AEF8D7D890173618361936B5
:102DA8001A3613500F5C14501058155011581650FD
:102DB8001258D8A009D013500F5E1450105A15504D
:102DC800115A1650125A1780D890163215321432EA
:102DD80013321B2EE1D717C00FF018C010F019C01E
:102DE80011F01AC012F01200000E146E10AE06D0C8
:102DF8000F6C101ED8B0102A010E146E12AE04D03B
:102E0800116C121ED8B0122A11501210D8B418D052
:102E1800010E136E04D0D89011361236132A12AE52
:102E2800FAD711500F5C12501058D8A004D0115086
:102E38000F5E1250105AD89012321132132EF1D759
:102E48001450D8B404D00F6C101ED8B0102A0FC07C
:102E58000FF010C010F0120001EE82F0120EEE6AB0
:102E6800E806FDE100EE80F02E0EEE6AE806FDE1D0
:102E78006C6A6B6A6A6A696A686A676A7C0EF66E67
:102E8800320EF76E000EF86E0900F5CFD7F0090084
:102E9800F5CFD8F0780EF66E320EF76E000EF86E9B
:102EA80000EE6DF010EE04F00900F5CFEEFFE550EE
:102EB800E150FAE171907192000EF86E000128EF6E
:102EC80006F02050211022102310D8B424D0010E6F
:102ED800246E06D0D8902036213622362336242A6E
:102EE80023AEF8D720501C5C21501D5822501E5884
:102EF80023501F58D8A008D020501C5E21501D5ABE
:102F080022501E5A23501F5AD8902332223221327F
:102F18002032242EE7D71CC01CF01DC01DF01EC097
:102F28001EF01FC01FF0120084948492000E106ED1
:102F3800190E0F6ED8EC18F0010E196E030E1964F5
:102F480001D005D0030EEAEC18F0192AF7D7020EC3
:102F5800EAEC18F0000E196E030E196401D0120085
:102F68001950010D6D0EF324D96E000EF420DA6E9F
:102F7800DF50176E000E4FEC18F0192AEDD71C6EB3
:102F88001ED0010E176E000E4FEC18F0000E106EDA
:102F9800020E0F6ED8EC18F01200020E196E010E18
:102FA80011EC18F01200100E176E000E4FEC18F00E
:102FB80012001CC017F0010E4FEC18F012001C5044
:102FC800080AD8B4F0D7020AD8B4E7D7060AD8B4A2
:102FD800D8D7EFD7000E5B1A000E5C1A000E5D1AE8
:102FE800800E5E1A57C043F058C044F059C045F0EF
:102FF8005AC046F05BC047F05CC048F05DC049F07D
:103008005EC04AF083EC0DF043C057F044C058F05E
:1030180045C059F046C05AF012001A6E09D0800E09
:1030280005D0C00E03D0900E01D0D00E1B6E0DD06F
:103038001950010AD8B4F3D7030AD8B4F2D7010A51
:10304800D8B4F1D7070AD8B4F0D71A041B261B50F6
:103058008009176E000E4FEC18F01200156E15C09F
:1030680011F011461146C2501118C30B1118C26E47
:10307800C282C2B2FED7C350C4CF11F0126A11C0C7
:1030880012F0116A1110136E1250146E13C00FF063
:1030980014C010F01200186E18B002D0849401D039
:1030A8008484010E9CEC18F0010E9CEC18F08492BC
:1030B80017380F0BEAEC18F017500F0BEAEC18F062
:1030C8001850D8B41200320E0400E82EFDD71200B2
:1030D800F292040E01018E1901018F11D8A406D0B5
:1030E800000E01018F6F000E8E6F1200010E01019C
:1030F8008E2501018E6F000E01018F2101018F6F56
:1031080012000F50101011101210D8B408D0000E71
:103118000F1A000E101A000E111A800E121A0FC084
:103128000FF010C010F011C011F012C012F0120010
:10313800126E000E146E000E136E03D00400134AB4
:10314800142A12500F6E106A13500F5C1050800A28
:10315800116E1450800A1158D8A01200EFD70F50E2
:103168001102F3CF13F0F4CF14F00F501202F35002
:10317800142610501102F350142613C00FF014C077
:1031880010F0120009D01DC0D9FF1EC0DAFFDF50B1
:10319800C3EC17F01D4A1E2A1DC0D9FF1EC0DAFF56
:1031A800DF50D8B41200EFD7000E126E000E116E69
:1031B80006D0FA0E0400E82EFDD7114A122A0F5045
:1031C800115C10501258D8B01200F3D7166E16C002
:1031D80015F0153A835015180F0B1518836E010E4C
:1031E8009CEC18F08482040000F084921200000E17
:1031F800C26E0C0EC16E9368800E946E000E826EC5
:103208009268000E956E000E966E1200116E000EFA
:10321800106E3A0E116005D02F0E116402D0010E07
:10322800106E10C00FF00F301200F294000E000163
:10323800AD6F010EAC6F37EC19F01200F092829A64
:10324800000E0101936F000E926F1200F090000EB5
:103258000101936F010E926F1200000EC26EC280C0
:10326800890EC06E12000B0EB36EDC0EB26E120029
:06327800280C0106020013
:10FEF200000000803FCDCCCC3D0AD7233C6F12835B
:10FF02003A17B7D138ACC52737BD37863595BFD636
:10FF12003377CC2B325F708930FFE6DB2E08E53C6D
:10FF22001E6042A20D0000803F000020410000C878
:10FF32004200007A4400401C460050C3470024742B
:10FF4200498096184B20BCBE4C286B6E4EF90215A8
:10FF520050EC78AD60CAF24971010000000A00005D
:10FF62000064000000E803000010270000A08601E2
:10FF72000040420F008096980000E1F50500CA9A01
:10FF82003B54696D653A253032643A253032643A21
:10FF92002530326420003130207365632020202018
:10FFA2002020202020200073656320202020202094
:10FFB2002020202020006D696E202020202020207B
:10FFC200202020003130206D696E2020202020204A
:10FFD20000686F75722020202020200053503A259F
:10FFE200362E3266430043543A25362E326643009B
:0EFFF2004D443A2000434B3A0048543A000078
:020000040020DA
:08000000FFFFFFFFFFFFFFFF00
:020000040030CA
:0E000000FF011F1FFF8385FF0FC00FE00F40A1
:00000001FF
